{
  "abi": [
    {
      "inputs": [
        {
          "internalType": "bytes",
          "name": "data",
          "type": "bytes"
        },
        {
          "internalType": "uint256",
          "name": "start",
          "type": "uint256"
        },
        {
          "internalType": "uint256",
          "name": "end",
          "type": "uint256"
        }
      ],
      "name": "Slice_OutOfBounds",
      "type": "error"
    },
    {
      "anonymous": false,
      "inputs": [
        {
          "indexed": true,
          "internalType": "address",
          "name": "user",
          "type": "address"
        },
        {
          "indexed": true,
          "internalType": "uint256",
          "name": "score",
          "type": "uint256"
        }
      ],
      "name": "GameEnd",
      "type": "event"
    },
    {
      "anonymous": false,
      "inputs": [
        {
          "indexed": true,
          "internalType": "address",
          "name": "user",
          "type": "address"
        },
        {
          "indexed": true,
          "internalType": "uint256",
          "name": "seed",
          "type": "uint256"
        },
        {
          "indexed": true,
          "internalType": "enum PlayerSideType",
          "name": "side",
          "type": "uint8"
        }
      ],
      "name": "GameStart",
      "type": "event"
    },
    {
      "anonymous": false,
      "inputs": [
        {
          "indexed": true,
          "internalType": "uint256",
          "name": "round",
          "type": "uint256"
        }
      ],
      "name": "NewRound",
      "type": "event"
    },
    {
      "anonymous": false,
      "inputs": [
        {
          "indexed": true,
          "internalType": "address",
          "name": "user",
          "type": "address"
        },
        {
          "indexed": true,
          "internalType": "uint256",
          "name": "round",
          "type": "uint256"
        },
        {
          "indexed": true,
          "internalType": "uint256",
          "name": "amount",
          "type": "uint256"
        }
      ],
      "name": "RewardClaimed",
      "type": "event"
    },
    {
      "anonymous": false,
      "inputs": [
        {
          "indexed": true,
          "internalType": "ResourceId",
          "name": "tableId",
          "type": "bytes32"
        },
        {
          "indexed": false,
          "internalType": "bytes32[]",
          "name": "keyTuple",
          "type": "bytes32[]"
        },
        {
          "indexed": false,
          "internalType": "bytes",
          "name": "staticData",
          "type": "bytes"
        },
        {
          "indexed": false,
          "internalType": "PackedCounter",
          "name": "encodedLengths",
          "type": "bytes32"
        },
        {
          "indexed": false,
          "internalType": "bytes",
          "name": "dynamicData",
          "type": "bytes"
        }
      ],
      "name": "Store_SetRecord",
      "type": "event"
    },
    {
      "inputs": [],
      "name": "_msgSender",
      "outputs": [
        {
          "internalType": "address",
          "name": "sender",
          "type": "address"
        }
      ],
      "stateMutability": "view",
      "type": "function"
    },
    {
      "inputs": [],
      "name": "_msgValue",
      "outputs": [
        {
          "internalType": "uint256",
          "name": "value",
          "type": "uint256"
        }
      ],
      "stateMutability": "pure",
      "type": "function"
    },
    {
      "inputs": [],
      "name": "_world",
      "outputs": [
        {
          "internalType": "address",
          "name": "",
          "type": "address"
        }
      ],
      "stateMutability": "view",
      "type": "function"
    },
    {
      "inputs": [
        {
          "internalType": "address",
          "name": "userAddr",
          "type": "address"
        },
        {
          "internalType": "uint256",
          "name": "roundId",
          "type": "uint256"
        }
      ],
      "name": "checkReward",
      "outputs": [
        {
          "components": [
            {
              "internalType": "uint128",
              "name": "currentSeed",
              "type": "uint128"
            },
            {
              "internalType": "enum PlayerSideType",
              "name": "side",
              "type": "uint8"
            },
            {
              "internalType": "uint256",
              "name": "stakedToken",
              "type": "uint256"
            },
            {
              "internalType": "uint256",
              "name": "bestScore",
              "type": "uint256"
            },
            {
              "internalType": "uint256",
              "name": "totalScore",
              "type": "uint256"
            },
            {
              "internalType": "uint256",
              "name": "reward",
              "type": "uint256"
            },
            {
              "internalType": "bool",
              "name": "claimed",
              "type": "bool"
            }
          ],
          "internalType": "struct PlayerData",
          "name": "",
          "type": "tuple"
        }
      ],
      "stateMutability": "view",
      "type": "function"
    },
    {
      "inputs": [
        {
          "internalType": "uint256",
          "name": "roundId",
          "type": "uint256"
        }
      ],
      "name": "claimReward",
      "outputs": [],
      "stateMutability": "nonpayable",
      "type": "function"
    },
    {
      "inputs": [],
      "name": "currentRound",
      "outputs": [
        {
          "internalType": "uint256",
          "name": "",
          "type": "uint256"
        }
      ],
      "stateMutability": "view",
      "type": "function"
    },
    {
      "inputs": [],
      "name": "fee",
      "outputs": [
        {
          "internalType": "uint256",
          "name": "",
          "type": "uint256"
        }
      ],
      "stateMutability": "view",
      "type": "function"
    },
    {
      "inputs": [],
      "name": "feeReceipt",
      "outputs": [
        {
          "internalType": "address",
          "name": "",
          "type": "address"
        }
      ],
      "stateMutability": "view",
      "type": "function"
    },
    {
      "inputs": [],
      "name": "forceNewRound",
      "outputs": [],
      "stateMutability": "nonpayable",
      "type": "function"
    },
    {
      "inputs": [],
      "name": "owner",
      "outputs": [
        {
          "internalType": "address",
          "name": "",
          "type": "address"
        }
      ],
      "stateMutability": "view",
      "type": "function"
    },
    {
      "inputs": [
        {
          "internalType": "address",
          "name": "userAddr",
          "type": "address"
        },
        {
          "internalType": "uint256",
          "name": "roundId",
          "type": "uint256"
        }
      ],
      "name": "player",
      "outputs": [
        {
          "components": [
            {
              "internalType": "uint128",
              "name": "currentSeed",
              "type": "uint128"
            },
            {
              "internalType": "enum PlayerSideType",
              "name": "side",
              "type": "uint8"
            },
            {
              "internalType": "uint256",
              "name": "stakedToken",
              "type": "uint256"
            },
            {
              "internalType": "uint256",
              "name": "bestScore",
              "type": "uint256"
            },
            {
              "internalType": "uint256",
              "name": "totalScore",
              "type": "uint256"
            },
            {
              "internalType": "uint256",
              "name": "reward",
              "type": "uint256"
            },
            {
              "internalType": "bool",
              "name": "claimed",
              "type": "bool"
            }
          ],
          "internalType": "struct PlayerData",
          "name": "",
          "type": "tuple"
        }
      ],
      "stateMutability": "view",
      "type": "function"
    },
    {
      "inputs": [],
      "name": "roundDuration",
      "outputs": [
        {
          "internalType": "uint256",
          "name": "",
          "type": "uint256"
        }
      ],
      "stateMutability": "view",
      "type": "function"
    },
    {
      "inputs": [
        {
          "internalType": "uint256",
          "name": "roundId",
          "type": "uint256"
        }
      ],
      "name": "roundInfo",
      "outputs": [
        {
          "components": [
            {
              "internalType": "uint256",
              "name": "startTime",
              "type": "uint256"
            },
            {
              "internalType": "uint256",
              "name": "endTime",
              "type": "uint256"
            },
            {
              "internalType": "uint256",
              "name": "totalToken",
              "type": "uint256"
            },
            {
              "internalType": "uint256",
              "name": "totalSeed",
              "type": "uint256"
            }
          ],
          "internalType": "struct RoundInfoData",
          "name": "",
          "type": "tuple"
        },
        {
          "components": [
            {
              "internalType": "uint256",
              "name": "catScore",
              "type": "uint256"
            },
            {
              "internalType": "uint256",
              "name": "dogScore",
              "type": "uint256"
            },
            {
              "internalType": "uint256",
              "name": "catSubmissionCount",
              "type": "uint256"
            },
            {
              "internalType": "uint256",
              "name": "dogSubmissionCount",
              "type": "uint256"
            },
            {
              "internalType": "uint256",
              "name": "availableToken",
              "type": "uint256"
            }
          ],
          "internalType": "struct RoundScoreData",
          "name": "",
          "type": "tuple"
        },
        {
          "components": [
            {
              "internalType": "address",
              "name": "topCatScoreUser",
              "type": "address"
            },
            {
              "internalType": "address",
              "name": "topCatTotalScoreUser",
              "type": "address"
            },
            {
              "internalType": "uint256",
              "name": "topCatScore",
              "type": "uint256"
            },
            {
              "internalType": "uint256",
              "name": "topCatTotalScore",
              "type": "uint256"
            },
            {
              "internalType": "address",
              "name": "topDogScoreUser",
              "type": "address"
            },
            {
              "internalType": "address",
              "name": "topDogTotalScoreUser",
              "type": "address"
            },
            {
              "internalType": "uint256",
              "name": "topDogScore",
              "type": "uint256"
            },
            {
              "internalType": "uint256",
              "name": "topDogTotalScore",
              "type": "uint256"
            }
          ],
          "internalType": "struct RoundTopData",
          "name": "",
          "type": "tuple"
        }
      ],
      "stateMutability": "view",
      "type": "function"
    },
    {
      "inputs": [
        {
          "internalType": "uint256",
          "name": "_fee",
          "type": "uint256"
        }
      ],
      "name": "setFee",
      "outputs": [],
      "stateMutability": "nonpayable",
      "type": "function"
    },
    {
      "inputs": [
        {
          "internalType": "address",
          "name": "_feeReceipt",
          "type": "address"
        }
      ],
      "name": "setFeeReceipt",
      "outputs": [],
      "stateMutability": "nonpayable",
      "type": "function"
    },
    {
      "inputs": [
        {
          "internalType": "address",
          "name": "newOwner",
          "type": "address"
        }
      ],
      "name": "setOwner",
      "outputs": [],
      "stateMutability": "nonpayable",
      "type": "function"
    },
    {
      "inputs": [
        {
          "internalType": "uint256",
          "name": "_roundDuration",
          "type": "uint256"
        }
      ],
      "name": "setRoundDuration",
      "outputs": [],
      "stateMutability": "nonpayable",
      "type": "function"
    },
    {
      "inputs": [
        {
          "internalType": "uint256",
          "name": "_stakingAmount",
          "type": "uint256"
        }
      ],
      "name": "setStakingAmount",
      "outputs": [],
      "stateMutability": "nonpayable",
      "type": "function"
    },
    {
      "inputs": [
        {
          "internalType": "address",
          "name": "_tokenAddress",
          "type": "address"
        }
      ],
      "name": "setTokenAddress",
      "outputs": [],
      "stateMutability": "nonpayable",
      "type": "function"
    },
    {
      "inputs": [
        {
          "internalType": "address",
          "name": "_verifier",
          "type": "address"
        }
      ],
      "name": "setVerifier",
      "outputs": [],
      "stateMutability": "nonpayable",
      "type": "function"
    },
    {
      "inputs": [
        {
          "internalType": "uint256[]",
          "name": "verify_instance",
          "type": "uint256[]"
        },
        {
          "internalType": "bool",
          "name": "status",
          "type": "bool"
        }
      ],
      "name": "setVerifyInstance",
      "outputs": [],
      "stateMutability": "nonpayable",
      "type": "function"
    },
    {
      "inputs": [
        {
          "internalType": "bool",
          "name": "_zkVerify",
          "type": "bool"
        }
      ],
      "name": "setZkVerify",
      "outputs": [],
      "stateMutability": "nonpayable",
      "type": "function"
    },
    {
      "inputs": [],
      "name": "stakingAmount",
      "outputs": [
        {
          "internalType": "uint256",
          "name": "",
          "type": "uint256"
        }
      ],
      "stateMutability": "view",
      "type": "function"
    },
    {
      "inputs": [
        {
          "internalType": "enum PlayerSideType",
          "name": "side",
          "type": "uint8"
        }
      ],
      "name": "startGame",
      "outputs": [],
      "stateMutability": "nonpayable",
      "type": "function"
    },
    {
      "inputs": [
        {
          "internalType": "uint256[]",
          "name": "proof",
          "type": "uint256[]"
        },
        {
          "internalType": "uint256[]",
          "name": "verify_instance",
          "type": "uint256[]"
        },
        {
          "internalType": "uint256[]",
          "name": "aux",
          "type": "uint256[]"
        },
        {
          "internalType": "uint256[][]",
          "name": "instances",
          "type": "uint256[][]"
        }
      ],
      "name": "submitProof",
      "outputs": [],
      "stateMutability": "nonpayable",
      "type": "function"
    },
    {
      "inputs": [
        {
          "internalType": "bytes4",
          "name": "interfaceId",
          "type": "bytes4"
        }
      ],
      "name": "supportsInterface",
      "outputs": [
        {
          "internalType": "bool",
          "name": "",
          "type": "bool"
        }
      ],
      "stateMutability": "pure",
      "type": "function"
    },
    {
      "inputs": [],
      "name": "tokenAddress",
      "outputs": [
        {
          "internalType": "address",
          "name": "",
          "type": "address"
        }
      ],
      "stateMutability": "view",
      "type": "function"
    },
    {
      "inputs": [],
      "name": "verifier",
      "outputs": [
        {
          "internalType": "contract DelphinusVerifier",
          "name": "",
          "type": "address"
        }
      ],
      "stateMutability": "view",
      "type": "function"
    },
    {
      "inputs": [],
      "name": "zkVerify",
      "outputs": [
        {
          "internalType": "bool",
          "name": "",
          "type": "bool"
        }
      ],
      "stateMutability": "view",
      "type": "function"
    }
  ],
  "bytecode": {
    "object": "0x608060405234801561001057600080fd5b50613ee1806100206000396000f3fe608060405234801561001057600080fd5b50600436106101cf5760003560e01c806369fe0e2d11610104578063a0da6d74116100a2578063e1af802c11610071578063e1af802c146103e3578063e4fc0d7f146103eb578063e6ab6079146103f3578063f7cb789a1461040657600080fd5b8063a0da6d741461038f578063ae169a50146103a2578063c5de11ff146103b5578063ddca3f43146103da57600080fd5b80637ff593b6116100de5780637ff593b61461034f5780638a19c8bc146103625780638da5cb5b1461036b5780639d76ea581461037c57600080fd5b806369fe0e2d146103205780636e89274814610333578063739a3e021461034657600080fd5b806336c92c3f1161017157806345ec93541161014b57806345ec9354146102d25780634d24f5b2146102e75780635437988d146102fa5780635ab59ae21461030d57600080fd5b806336c92c3f1461028a5780633f2308721461029d578063427f0b00146102b057600080fd5b806317279cbd116101ad57806317279cbd1461023157806320adb3c81461025157806326a4e8d2146102645780632b7ac3f31461027757600080fd5b806301ffc9a7146101d4578063119df25f146101fc57806313af40351461021c575b600080fd5b6101e76101e2366004613408565b61040f565b60405190151581526020015b60405180910390f35b6102046104a8565b6040516001600160a01b0390911681526020016101f3565b61022f61022a366004613461565b6104b7565b005b61024461023f36600461347c565b6104f9565b6040516101f391906134bc565b61022f61025f36600461359c565b610550565b61022f610272366004613461565b61058e565b600654610204906001600160a01b031681565b61022f610298366004613654565b6105d0565b61022f6102ab366004613654565b6105dd565b6102c36102be366004613654565b6105ea565b6040516101f39392919061366d565b36601f1901355b6040519081526020016101f3565b61022f6102f5366004613461565b6106b9565b61022f610308366004613461565b6106fb565b61022f61031b366004613730565b61073d565b61022f61032e366004613654565b61078f565b61022f610341366004613799565b61079c565b6102d960045481565b600154610204906001600160a01b031681565b6102d960005481565b6007546001600160a01b0316610204565b600354610204906001600160a01b031681565b61024461039d36600461347c565b610d34565b61022f6103b0366004613654565b610f92565b6006546101e79074010000000000000000000000000000000000000000900460ff1681565b6102d960025481565b6102046111ce565b61022f6111d8565b61022f61040136600461385d565b611207565b6102d960055481565b60007fffffffff0000000000000000000000000000000000000000000000000000000082167fb42128800000000000000000000000000000000000000000000000000000000014806104a257507fffffffff0000000000000000000000000000000000000000000000000000000082167f01ffc9a700000000000000000000000000000000000000000000000000000000145b92915050565b60006104b261133f565b905090565b6104bf611371565b600780547fffffffffffffffffffffffff0000000000000000000000000000000000000000166001600160a01b0392909216919091179055565b61053c6040805160e08101909152600080825260208201908152602001600081526020016000815260200160008152602001600081526020016000151581525090565b600061054884846113db565b949350505050565b610558611371565b600061056383611535565b90506000610570826115c8565b831515815260208101859052905061058882826116c7565b50505050565b610596611371565b600380547fffffffffffffffffffffffff0000000000000000000000000000000000000000166001600160a01b0392909216919091179055565b6105d8611371565b600555565b6105e5611371565b600455565b6106156040518060800160405280600081526020016000815260200160008152602001600081525090565b6106476040518060a0016040528060008152602001600081526020016000815260200160008152602001600081525090565b6040805161010081018252600080825260208201819052918101829052606081018290526080810182905260a0810182905260c0810182905260e0810182905290610691856117ae565b9050600061069e866118ba565b905060006106ab876119cd565b929791965091945092505050565b6106c1611371565b600180547fffffffffffffffffffffffff0000000000000000000000000000000000000000166001600160a01b0392909216919091179055565b610703611371565b600680547fffffffffffffffffffffffff0000000000000000000000000000000000000000166001600160a01b0392909216919091179055565b610745611371565b6006805491151574010000000000000000000000000000000000000000027fffffffffffffffffffffff00ffffffffffffffffffffffffffffffffffffffff909216919091179055565b610797611371565b600255565b6000828260008181106107b1576107b161387e565b90506020028101906107c39190613894565b60008181106107d4576107d461387e565b9050602002013590506000838360008181106107f2576107f261387e565b90506020028101906108049190613894565b60048181106108155761081561387e565b905060200201359050600660149054906101000a900460ff1615610abb57600061087c610845896003818d6138de565b8080602002602001604051908101604052809392919081815260200183836020028082843760009201919091525061153592505050565b90506000610889826115c8565b80519091506108df5760405162461bcd60e51b815260206004820152601560248201527f7665726966795f696e7374616e6365206572726f72000000000000000000000060448201526064015b60405180910390fd5b6006546040517fae022ccd0000000000000000000000000000000000000000000000000000000081526001600160a01b039091169063ae022ccd90610936908f908f908f908f908f908f908f908f90600401613957565b60006040518083038186803b15801561094e57600080fd5b505afa158015610962573d6000803e3d6000fd5b5050505060006109ad8787600081811061097e5761097e61387e565b90506020028101906109909190613894565b60018181106109a1576109a161387e565b90506020020135611af0565b905060006109ea888860008181106109c7576109c761387e565b90506020028101906109d99190613894565b60028181106109a1576109a161387e565b90506000610a2789896000818110610a0457610a0461387e565b9050602002810190610a169190613894565b60038181106109a1576109a161387e565b9050602081811c63ffffffff169083901b6bffffffffffffffff0000000016606085901b73ffffffffffffffff00000000000000000000000016171780338114610ab35760405162461bcd60e51b815260206004820152601760248201527f506c617965722061646472657373206d69736d6174636800000000000000000060448201526064016108d6565b505050505050505b610ac3611b45565b506000610ad2336000546113db565b80519091506fffffffffffffffffffffffffffffffff168314610b375760405162461bcd60e51b815260206004820152600a60248201527f73656564206572726f720000000000000000000000000000000000000000000060448201526064016108d6565b600081526060810151821115610b4f57606081018290525b8181608001818151610b619190613a4d565b905250600454604082018051610b78908390613a4d565b905250600054610b8a90339083611c13565b6000610b976000546118ba565b9050600082602001516001811115610bb157610bb16134a6565b03610be8578281600001818151610bc89190613a4d565b90525060408101805160019190610be0908390613a4d565b905250610c16565b8281602001818151610bfa9190613a4d565b90525060608101805160019190610c12908390613a4d565b9052505b60045481608001818151610c2a9190613a4d565b905250600054610c3a9082611d0d565b6000610c476000546119cd565b9050600083602001516001811115610c6157610c616134a6565b03610caa57826060015181604001511015610c8457606083015160408201523381525b826080015181606001511015610ca557608083015160608201523360208201525b610cec565b82606001518160c001511015610ccb57606083015160c08201523360808201525b82608001518160e001511015610cec57608083015160e08201523360a08201525b610cf860005482611e01565b604051849033907f2a2354125f81ee487bda88be7f56f045ff7d068431bfdb0ddb0a286c17b9524490600090a350505050505050505050505050565b610d776040805160e08101909152600080825260208201908152602001600081526020016000815260200160008152602001600081526020016000151581525090565b6000610d82836117ae565b905042816020015110610dd75760405162461bcd60e51b815260206004820152601660248201527f726f756e64206e6f742066696e6973686564207965740000000000000000000060448201526064016108d6565b6000610de2846118ba565b90506000610df086866113db565b90506000826000015183602001511115610e0c57506001610e10565b5060005b806001811115610e2257610e226134a6565b82602001516001811115610e3857610e386134a6565b14610e48575092506104a2915050565b6000610e53876119cd565b905060008080846001811115610e6b57610e6b6134a6565b14610e7a578260800151610e7d565b82515b9050600080856001811115610e9457610e946134a6565b14610ea3578360a00151610ea9565b83602001515b90508a6001600160a01b0316826001600160a01b031603610ed257610ecf600a84613a4d565b92505b8a6001600160a01b0316816001600160a01b031603610ef957610ef6600a84613a4d565b92505b600080866001811115610f0e57610f0e6134a6565b14610f1d578760200151610f20565b87515b9050600a8188608001516064610f369190613a60565b610f409190613a8d565b610f4b906008613a60565b610f559190613a8d565b610f5f9085613a4d565b93506064848960800151610f739190613a60565b610f7d9190613a8d565b60a088015250949a9950505050505050505050565b610f9a611b45565b506000610fa73383610d34565b905060006103e88260a001516002546103e8610fc39190613aaf565b610fcd9190613a60565b610fd79190613a8d565b6003546040517fa9059cbb000000000000000000000000000000000000000000000000000000008152336004820152602481018390529192506001600160a01b03169063a9059cbb906044016020604051808303816000875af1158015611042573d6000803e3d6000fd5b505050506040513d601f19601f820116820180604052508101906110669190613ac2565b6110b25760405162461bcd60e51b815260206004820152600f60248201527f7472616e73666572206661696c6564000000000000000000000000000000000060448201526064016108d6565b600254156111b75760035460015460a08401516001600160a01b039283169263a9059cbb9216906110e4908590613aaf565b6040517fffffffff0000000000000000000000000000000000000000000000000000000060e085901b1681526001600160a01b03909216600483015260248201526044016020604051808303816000875af1158015611147573d6000803e3d6000fd5b505050506040513d601f19601f8201168201806040525081019061116b9190613ac2565b6111b75760405162461bcd60e51b815260206004820152600f60248201527f7472616e73666572206661696c6564000000000000000000000000000000000060448201526064016108d6565b600160c08301526111c9338484611c13565b505050565b60006104b2611f4a565b6111e0611371565b60006111ed6000546117ae565b600060208201819052549091506112049082611f84565b50565b600354600480546040517f23b872dd000000000000000000000000000000000000000000000000000000008152339281019290925230602483015260448201526001600160a01b03909116906323b872dd906064016020604051808303816000875af115801561127b573d6000803e3d6000fd5b505050506040513d601f19601f8201168201806040525081019061129f9190613ac2565b6112eb5760405162461bcd60e51b815260206004820152600b60248201527f6e6f7420616c6c6f77656400000000000000000000000000000000000000000060448201526064016108d6565b60006112f5611b45565b9050611301828261206e565b6001816060018181516113149190613a4d565b90525060045460408201805161132b908390613a4d565b90525060005461133b9082611f84565b5050565b7fffffffffffffffffffffffffffffffffffffffffffffffffffffffffffffffcc36013560601c8061136e5750335b90565b336113846007546001600160a01b031690565b6001600160a01b031614806113b3575060006113a86007546001600160a01b031690565b6001600160a01b0316145b6113d95760405162461bcd60e51b815260206004820152600060248201526044016108d6565b565b61141e6040805160e08101909152600080825260208201908152602001600081526020016000815260200160008152602001600081526020016000151581525090565b604080516002808252606082018352600092602083019080368337019050509050836001600160a01b031660001b8160008151811061145f5761145f61387e565b6020026020010181815250508260001b816001815181106114825761148261387e565b60209081029190910181019190915260408051613a3160f11b928101929092526000602283018190527f506c6179657200000000000000000000000000000000000000000000000000006030840152918291829161151991016040516020818303038152906040526114f390613adf565b857e9207001001202020200100000000000000000000000000000000000000000061222f565b92509250925061152a8383836122ff565b979650505050505050565b60008160008151811061154a5761154a61387e565b6020026020010151826001815181106115655761156561387e565b6020026020010151836002815181106115805761158061387e565b60200260200101516040516020016115ab939291909283526020830191909152604082015260600190565b604051602081830303815290604052805190602001209050919050565b60408051808201825260008082526060602083015282516001808252818501909452919290919081602001602082028036833701905050905082816000815181106116155761161561387e565b60209081029190910181019190915260408051613a3160f11b928101929092526000602283018190527f4261746368496e7374616e636500000000000000000000000000000000000000603084015291829182916116ac910160405160208183030381529060405261168690613adf565b857e0101010100000000000000000000000000000000000000000000000000000061222f565b9250925092506116bd8383836123be565b9695505050505050565b60006116d682600001516123f6565b905060006116e78360200151612421565b905060006116f88460200151612434565b604080516001808252818301909252919250600091906020808301908036833701905050905085816000815181106117325761173261387e565b60209081029190910181019190915260408051613a3160f11b92810192909252600060228301527f4261746368496e7374616e63650000000000000000000000000000000000000060308301526117a691015b60405160208183030381529060405261179d90613adf565b8286868661244f565b505050505050565b6117d96040518060800160405280600081526020016000815260200160008152602001600081525090565b604080516001808252818301909252600091602080830190803683370190505090508260001b816000815181106118125761181261387e565b60209081029190910181019190915260408051613a3160f11b928101929092526000602283018190527f526f756e64496e666f0000000000000000000000000000000000000000000000603084015291829182916118a9910160405160208183030381529060405261188390613adf565b857e8004002020202000000000000000000000000000000000000000000000000061222f565b9250925092506116bd838383612504565b6118ec6040518060a0016040528060008152602001600081526020016000815260200160008152602001600081525090565b604080516001808252818301909252600091602080830190803683370190505090508260001b816000815181106119255761192561387e565b60209081029190910181019190915260408051613a3160f11b928101929092526000602283018190527f526f756e6453636f726500000000000000000000000000000000000000000000603084015291829182916119bc910160405160208183030381529060405261199690613adf565b857ea005002020202020000000000000000000000000000000000000000000000061222f565b9250925092506116bd838383612550565b6040805161010081018252600080825260208201819052818301819052606082018190526080820181905260a0820181905260c0820181905260e082018190528251600180825281850190945291929091908160200160208202803683370190505090508260001b81600081518110611a4857611a4861387e565b60209081029190910181019190915260408051613a3160f11b928101929092526000602283018190527f526f756e64546f7000000000000000000000000000000000000000000000000060308401529182918291611adf9101604051602081830303815290604052611ab990613adf565b857ed008001414202014142020000000000000000000000000000000000000000061222f565b9250925092506116bd8383836125a8565b600080805b6008811015611b3e57611b09816008613a60565b8467ffffffffffffffff16901c60ff1660088367ffffffffffffffff16901b1791508080611b3690613b06565b915050611af5565b5092915050565b611b706040518060800160405280600081526020016000815260200160008152602001600081525090565b6000611b7d6000546117ae565b905080602001514210611c0e576001600080828254611b9c9190613a4d565b92505081905550604051806080016040528042815260200160055442611bc29190613a4d565b81526020016000815260200160008152509050611be160005482611f84565b6000805460405190917fa2b5357eea32aeb35142ba36b087f9fe674f34f8b57ce94d30e9f4f572195bcf91a25b919050565b6000611c40826000015183602001518460400151856060015186608001518760a001518860c00151612636565b604080516002808252606080830184529394506000939284929190602083019080368337019050509050866001600160a01b031660001b81600081518110611c8a57611c8a61387e565b6020026020010181815250508560001b81600181518110611cad57611cad61387e565b60209081029190910181019190915260408051613a3160f11b92810192909252600060228301527f506c6179657200000000000000000000000000000000000000000000000000006030830152611d049101611785565b50505050505050565b6000611d6882600001518360200151846040015185606001518660800151604080516020810196909652858101949094526060850192909252608084015260a0808401919091528151808403909101815260c0909201905290565b604080516001808252818301909252919250600091606091839190602080830190803683370190505090508560001b81600081518110611daa57611daa61387e565b60209081029190910181019190915260408051613a3160f11b92810192909252600060228301527f526f756e6453636f72650000000000000000000000000000000000000000000060308301526117a69101611785565b6000611eb1826000015183602001518460400151856060015186608001518760a001518860c001518960e00151604080517fffffffffffffffffffffffffffffffffffffffff00000000000000000000000060609a8b1b81166020830152988a1b891660348201526048810197909752606887019590955292871b86166088860152951b909316609c83015260b082019390935260d0808201929092528251808203909201825260f00190915290565b604080516001808252818301909252919250600091606091839190602080830190803683370190505090508560001b81600081518110611ef357611ef361387e565b60209081029190910181019190915260408051613a3160f11b92810192909252600060228301527f526f756e64546f7000000000000000000000000000000000000000000000000060308301526117a69101611785565b7f629a4c26e296b22a8e0856e9f6ecb2d1008d7e00081111962cd175fa7488e175546000906001600160a01b031680611c0e573391505090565b6000611fd582600001518360200151846040015185606001516040805160208101959095528481019390935260608401919091526080808401919091528151808403909101815260a0909201905290565b604080516001808252818301909252919250600091606091839190602080830190803683370190505090508560001b816000815181106120175761201761387e565b60209081029190910181019190915260408051613a3160f11b92810192909252600060228301527f526f756e64496e666f000000000000000000000000000000000000000000000060308301526117a69101611785565b600061207c336000546113db565b80519091506fffffffffffffffffffffffffffffffff16156120e05760405162461bcd60e51b815260206004820152600e60248201527f616c7265616479207374616b656400000000000000000000000000000000000060448201526064016108d6565b6040810151158061211657508260018111156120fe576120fe6134a6565b81602001516001811115612114576121146134a6565b145b6121625760405162461bcd60e51b815260206004820152601360248201527f7369646520616c72656164792063686f6f73650000000000000000000000000060448201526064016108d6565b60008260600151600054620186a061217a9190613a60565b6121849190613a4d565b6fffffffffffffffffffffffffffffffff811683529050602082018460018111156121b1576121b16134a6565b908160018111156121c4576121c46134a6565b815250506121d53360005484611c13565b8360018111156121e7576121e76134a6565b82516040516fffffffffffffffffffffffffffffffff9091169033907f09a902ef0136c0a6a652dc0a99b961be31a685065dc669abdd461035fdd2bf7890600090a450505050565b606060006060600061223f611f4a565b9050306001600160a01b038216036122685761225c878787612671565b935093509350506122f6565b6040517f419b58fd0000000000000000000000000000000000000000000000000000000081526001600160a01b0382169063419b58fd906122b1908a908a908a90600401613b5b565b600060405180830381865afa1580156122ce573d6000803e3d6000fd5b505050506040513d6000823e601f3d908101601f1916820160405261225c9190810190613c0c565b93509350939050565b6123426040805160e08101909152600080825260208201908152602001600081526020016000815260200160008152602001600081526020016000151581525090565b61234b84612779565b80151560c089015260a088018290526080880183905260608801849052604088018590528760208101876001811115612386576123866134a6565b6001811115612397576123976134a6565b90526fffffffffffffffffffffffffffffffff909716909652509498975050505050505050565b6040805180820190915260008152606060208201526123dc846127f2565b151581526123ea8383612803565b60208201529392505050565b60405181151560f81b60208201526060906021015b6040516020818303038152906040529050919050565b60006104a28251602002603881901b1790565b606061243f8261282f565b60405160200161240b9190613c79565b6000612459611f4a565b9050306001600160a01b0382160361247d576124788686868686612846565b6117a6565b6040517f298314fb0000000000000000000000000000000000000000000000000000000081526001600160a01b0382169063298314fb906124ca9089908990899089908990600401613cc1565b600060405180830381600087803b1580156124e457600080fd5b505af11580156124f8573d6000803e3d6000fd5b50505050505050505050565b61252f6040518060800160405280600081526020016000815260200160008152602001600081525090565b61253884612863565b60608501526040840152602083015281529392505050565b6125826040518060a0016040528060008152602001600081526020016000815260200160008152602001600081525090565b61258b84612896565b608086015260608501526040840152602083015281529392505050565b6040805161010081018252600080825260208201819052918101829052606081018290526080810182905260a0810182905260c0810182905260e08101919091526125f2846128d3565b60e089015260c08801526001600160a01b0390811660a088015290811660808701526060860191909152604085019190915290811660208401521681529392505050565b6060878787878787876040516020016126559796959493929190613d12565b6040516020818303038152906040529050979650505050505050565b60606000606060006126828561294a565b905061268f87878361296d565b9350600061269c866129a6565b9050801561276e576126ae88886129e3565b935066ffffffffffffff841667ffffffffffffffff8111156126d2576126d261353c565b6040519080825280601f01601f1916602001820160405280156126fc576020820181803683370190505b5092506020830160005b828160ff16101561276b57600061271e8b8b846129f6565b9050600061273b888460ff166028026038011c64ffffffffff1690565b905061274a8282600087612a76565b6127548185613a4d565b93505050808061276390613d94565b915050612706565b50505b505093509350939050565b600080600080600080600061279388600060209101015190565b603089015160809190911c975060f81c60018111156127b4576127b46134a6565b603189015160518a015160718b015160918c015160b18d0151949a50929850909650945092506127e5905b60f81c90565b9050919395979092949650565b60208101516000906104a2906127df565b60606000603884901c64ffffffffff16612826612821858484612b2e565b612bbe565b95945050505050565b60608161283f8160206000612bcf565b9392505050565b61285c85858585856128578b612c2f565b612d5d565b5050505050565b60008060008061287885600060209101015190565b60408601516060870151608090970151919790969550909350915050565b60008060008060006128ad86600060209101015190565b60408701516060880151608089015160a090990151929991989097509550909350915050565b6000806000806000806000806128ee89600060209101015190565b60348a015160609190911c985060488a015160609190911c975060688a015190965060888a0151909550609c8a015160609190911c945060b08a015160609190911c935060d08a015190925060001c9050919395975091939597565b6000600861295a60026020613aaf565b6129649190613a60565b9190911c919050565b60608160000361298c575060408051602081019091526000815261283f565b6000612998858561304c565b9050612826818460006130a2565b600060086001806129b960026020613aaf565b6129c39190613aaf565b6129cd9190613aaf565b6129d79190613a60565b8260ff911c1692915050565b600061283f6129f284846130cd565b5490565b60008383604051602001612a0b929190613db3565b604051602081830303815290604052805190602001208260f81b7effffffffffffffffffffffffffffffffffffffffffffffffffffffffffffff19167f3b4102da22e32d82fc925482184f16c09fd4281692720b87d124aef6da48a0f1181860001c90509392505050565b8115612ae85760208210612aa057602082048401935060208281612a9c57612a9c613a77565b0691505b8115612ae85760208290036000600019600883021c1990508554600885021b811984511682821617845250818511612ad9575050610588565b50600194909401939283900392015b5b60208310612b0a5783548152600190930192601f1990920191602001612ae9565b8215610588576000600019600885021c198251865482169119161782525050505050565b6000818311158015612b41575083518211155b612b7d578383836040517f23230fa30000000000000000000000000000000000000000000000000000000081526004016108d693929190613dee565b60208401612b8b8482613a4d565b90506000612b998585613aaf565b6fffffffffffffffffffffffffffffffff1660809290921b9190911795945050505050565b6060600061283f8360206000613123565b82516060906000612be08583613a60565b9050604051925060208301601f19603f83860101166040528184526000602088015b84821015612c23578051871b83529187019160019190910190602001612c02565b50505050509392505050565b60408051613a3160f11b60208201527f73746f726500000000000000000000000000000000000000000000000000000060228201527f5461626c65730000000000000000000000000000000000000000000000000000603082015260009101604051602081830303815290604052612ca690613adf565b8203612cd257507e60030220202000000000000000000000000000000000000000000000000000919050565b60408051613a3160f11b60208201527f73746f726500000000000000000000000000000000000000000000000000000060228201527f5461626c6573000000000000000000000000000000000000000000000000000060308201526104a291612d549101604051602081830303815290604052612d4e90613adf565b84613192565b602060006131ae565b857f8dbb3a9672eebfd3773e72dd9c102393436816d832c7ba9e1e1ac8fcadcac7a986868686604051612d939493929190613e13565b60405180910390a2613a3160f11b867fffff00000000000000000000000000000000000000000000000000000000000016036117a6576000612dd4876131ff565b905060005b8151811015612eb7576000828281518110612df657612df661387e565b60200260200101519050612e226001826affffffffffffffffffffff19166132df90919063ffffffff16565b15612ea4576040517f57066c9c000000000000000000000000000000000000000000000000000000008152606082901c906357066c9c90612e71908c908c908c908c908c908c90600401613e52565b600060405180830381600087803b158015612e8b57600080fd5b505af1158015612e9f573d6000803e3d6000fd5b505050505b5080612eaf81613b06565b915050612dd9565b506000612ec4888861304c565b90506000602087019050612edc826000838a516132fd565b6000612ee7856129a6565b1115612f6b576000612ef98a8a6130cd565b878155905060208601915060008060005b612f13886129a6565b8160ff161015612f6657612f288d8d836129f6565b9250612f438a8260ff166028026038011c64ffffffffff1690565b9150612f5283600087856132fd565b612f5c8286613a4d565b9450600101612f0a565b505050505b60005b83518110156124f8576000848281518110612f8b57612f8b61387e565b60200260200101519050612fb76002826affffffffffffffffffffff19166132df90919063ffffffff16565b15613039576040517f5b28cdaf000000000000000000000000000000000000000000000000000000008152606082901c90635b28cdaf90613006908e908e908e908e908e908e90600401613e52565b600060405180830381600087803b15801561302057600080fd5b505af1158015613034573d6000803e3d6000fd5b505050505b508061304481613b06565b915050612f6e565b60008282604051602001613061929190613db3565b60408051601f1981840301815291905280516020909101207f86425bff6b57326c7859e89024fe4f238ca327a1ae4a230180dd2f0e88aaa7d9189392505050565b60405160208101601f19603f85840101166040528382526130c585858584612a76565b509392505050565b600082826040516020016130e2929190613db3565b60408051601f1981840301815291905280516020909101207f14e2fcc58e58e68ec7edc30c8d50dccc3ce2714a623ec81f46b6a63922d76569189392505050565b606060006131318560801c90565b90506fffffffffffffffffffffffffffffffff8516600085828161315757613157613a77565b04905060405193506020840160208202810160405281855260005b82811015612c23578451871c825293870193602090910190600101613172565b6040805160208101849052908101829052600090606001613061565b6000602082106131d4576020820484019350602082816131d0576131d0613a77565b0691505b508254600882021b6020829003808411156130c5576001850154600882021c82179150509392505050565b604080516001808252818301909252606091600091906020808301908036833701905050905082816000815181106132395761323961387e565b60209081029190910181019190915260408051613a3160f11b818401527f73746f726500000000000000000000000000000000000000000000000000000060228201527f53746f7265486f6f6b7300000000000000000000000000000000000000000000603082015281518082039093018352810190526000906132c8906132c090613adf565b8360006133bd565b90506105486132da8260008451612b2e565b6133f7565b60008160ff16826132f08560581c90565b1660ff1614905092915050565b821561337757602083106133275760208304840193506020838161332357613323613a77565b0692505b82156133775760208390036000600019600884021c1990506008850281811c91508451811c9050811987541682821617875550818311613368575050610588565b50600194909401939182019190035b5b602081106133995781518455600190930192602090910190601f1901613378565b8015610588576000600019600883021c198554845182169119161785555050505050565b60606105486133cd8585856129f6565b6133f0846133db88886129e3565b9060ff166028026038011c64ffffffffff1690565b60006130a2565b6060600061283f8360156000613123565b60006020828403121561341a57600080fd5b81357fffffffff000000000000000000000000000000000000000000000000000000008116811461283f57600080fd5b80356001600160a01b0381168114611c0e57600080fd5b60006020828403121561347357600080fd5b61283f8261344a565b6000806040838503121561348f57600080fd5b6134988361344a565b946020939093013593505050565b634e487b7160e01b600052602160045260246000fd5b81516fffffffffffffffffffffffffffffffff168152602082015160e0820190600281106134fa57634e487b7160e01b600052602160045260246000fd5b8060208401525060408301516040830152606083015160608301526080830151608083015260a083015160a083015260c0830151611b3e60c084018215159052565b634e487b7160e01b600052604160045260246000fd5b604051601f8201601f1916810167ffffffffffffffff8111828210171561357b5761357b61353c565b604052919050565b801515811461120457600080fd5b8035611c0e81613583565b600080604083850312156135af57600080fd5b823567ffffffffffffffff808211156135c757600080fd5b818501915085601f8301126135db57600080fd5b81356020828211156135ef576135ef61353c565b8160051b9250613600818401613552565b828152928401810192818101908985111561361a57600080fd5b948201945b848610156136385785358252948201949082019061361f565b96506136479050878201613591565b9450505050509250929050565b60006020828403121561366657600080fd5b5035919050565b6000610220820190508451825260208501516020830152604085015160408301526060850151606083015283516080830152602084015160a0830152604084015160c0830152606084015160e083015260808401516101008301526105486101208301846001600160a01b0380825116835280602083015116602084015260408201516040840152606082015160608401528060808301511660808401528060a08301511660a08401525060c081015160c083015260e081015160e08301525050565b60006020828403121561374257600080fd5b813561283f81613583565b60008083601f84011261375f57600080fd5b50813567ffffffffffffffff81111561377757600080fd5b6020830191508360208260051b850101111561379257600080fd5b9250929050565b6000806000806000806000806080898b0312156137b557600080fd5b883567ffffffffffffffff808211156137cd57600080fd5b6137d98c838d0161374d565b909a50985060208b01359150808211156137f257600080fd5b6137fe8c838d0161374d565b909850965060408b013591508082111561381757600080fd5b6138238c838d0161374d565b909650945060608b013591508082111561383c57600080fd5b506138498b828c0161374d565b999c989b5096995094979396929594505050565b60006020828403121561386f57600080fd5b81356002811061283f57600080fd5b634e487b7160e01b600052603260045260246000fd5b6000808335601e198436030181126138ab57600080fd5b83018035915067ffffffffffffffff8211156138c657600080fd5b6020019150600581901b360382131561379257600080fd5b600080858511156138ee57600080fd5b838611156138fb57600080fd5b5050600583901b0193919092039150565b81835260007f07ffffffffffffffffffffffffffffffffffffffffffffffffffffffffffffff83111561393e57600080fd5b8260051b80836020870137939093016020019392505050565b60808152600061396b608083018a8c61390c565b60208382038185015261397f828a8c61390c565b9150838203604085015261399482888a61390c565b84810360608601528581529150808201600586811b840183018860005b89811015613a2257601f198784030185528135601e198c36030181126139d657600080fd5b8b01868101903567ffffffffffffffff8111156139f257600080fd5b80861b3603821315613a0357600080fd5b613a0e85828461390c565b9688019694505050908501906001016139b1565b50909f9e505050505050505050505050505050565b634e487b7160e01b600052601160045260246000fd5b808201808211156104a2576104a2613a37565b80820281158282048414176104a2576104a2613a37565b634e487b7160e01b600052601260045260246000fd5b600082613aaa57634e487b7160e01b600052601260045260246000fd5b500490565b818103818111156104a2576104a2613a37565b600060208284031215613ad457600080fd5b815161283f81613583565b80516020808301519190811015613b00576000198160200360031b1b821691505b50919050565b60006000198203613b1957613b19613a37565b5060010190565b600081518084526020808501945080840160005b83811015613b5057815187529582019590820190600101613b34565b509495945050505050565b838152606060208201526000613b746060830185613b20565b9050826040830152949350505050565b60005b83811015613b9f578181015183820152602001613b87565b50506000910152565b600082601f830112613bb957600080fd5b815167ffffffffffffffff811115613bd357613bd361353c565b613be66020601f19601f84011601613552565b818152846020838601011115613bfb57600080fd5b610548826020830160208701613b84565b600080600060608486031215613c2157600080fd5b835167ffffffffffffffff80821115613c3957600080fd5b613c4587838801613ba8565b9450602086015193506040860151915080821115613c6257600080fd5b50613c6f86828701613ba8565b9150509250925092565b60008251613c8b818460208701613b84565b9190910192915050565b60008151808452613cad816020860160208601613b84565b601f01601f19169290920160200192915050565b85815260a060208201526000613cda60a0830187613b20565b8281036040840152613cec8187613c95565b90508460608401528281036080840152613d068185613c95565b98975050505050505050565b7fffffffffffffffffffffffffffffffff000000000000000000000000000000008860801b168152600060028810613d5a57634e487b7160e01b600052602160045260246000fd5b5060f896871b60108201526011810195909552603185019390935260518401919091526071830152151590911b6091820152609201919050565b600060ff821660ff8103613daa57613daa613a37565b60010192915050565b82815260006020808301845182860160005b82811015613de157815184529284019290840190600101613dc5565b5091979650505050505050565b606081526000613e016060830186613c95565b60208301949094525060400152919050565b608081526000613e266080830187613b20565b8281036020840152613e388187613c95565b9050846040840152828103606084015261152a8185613c95565b86815260c060208201526000613e6b60c0830188613b20565b8281036040840152613e7d8188613c95565b90508560608401528281036080840152613e978186613c95565b9150508260a083015297965050505050505056fea2646970667358221220c56a071acfb90feefc87f5ddfc5ff162d6221eaddbbbf5aed96021739d80eaba64736f6c63430008150033",
    "linkReferences": {}
  },
  "methodIdentifiers": {
    "_msgSender()": "119df25f",
    "_msgValue()": "45ec9354",
    "_world()": "e1af802c",
    "checkReward(address,uint256)": "a0da6d74",
    "claimReward(uint256)": "ae169a50",
    "currentRound()": "8a19c8bc",
    "fee()": "ddca3f43",
    "feeReceipt()": "7ff593b6",
    "forceNewRound()": "e4fc0d7f",
    "owner()": "8da5cb5b",
    "player(address,uint256)": "17279cbd",
    "roundDuration()": "f7cb789a",
    "roundInfo(uint256)": "427f0b00",
    "setFee(uint256)": "69fe0e2d",
    "setFeeReceipt(address)": "4d24f5b2",
    "setOwner(address)": "13af4035",
    "setRoundDuration(uint256)": "36c92c3f",
    "setStakingAmount(uint256)": "3f230872",
    "setTokenAddress(address)": "26a4e8d2",
    "setVerifier(address)": "5437988d",
    "setVerifyInstance(uint256[],bool)": "20adb3c8",
    "setZkVerify(bool)": "5ab59ae2",
    "stakingAmount()": "739a3e02",
    "startGame(uint8)": "e6ab6079",
    "submitProof(uint256[],uint256[],uint256[],uint256[][])": "6e892748",
    "supportsInterface(bytes4)": "01ffc9a7",
    "tokenAddress()": "9d76ea58",
    "verifier()": "2b7ac3f3",
    "zkVerify()": "c5de11ff"
  },
  "id": 208
}