{
  "abi": [
    {
      "inputs": [
        {
          "internalType": "address",
          "name": "initialOwner",
          "type": "address"
        }
      ],
      "stateMutability": "nonpayable",
      "type": "constructor"
    },
    {
      "inputs": [],
      "name": "ECDSAInvalidSignature",
      "type": "error"
    },
    {
      "inputs": [
        {
          "internalType": "uint256",
          "name": "length",
          "type": "uint256"
        }
      ],
      "name": "ECDSAInvalidSignatureLength",
      "type": "error"
    },
    {
      "inputs": [
        {
          "internalType": "bytes32",
          "name": "s",
          "type": "bytes32"
        }
      ],
      "name": "ECDSAInvalidSignatureS",
      "type": "error"
    },
    {
      "inputs": [
        {
          "internalType": "address",
          "name": "spender",
          "type": "address"
        },
        {
          "internalType": "uint256",
          "name": "allowance",
          "type": "uint256"
        },
        {
          "internalType": "uint256",
          "name": "needed",
          "type": "uint256"
        }
      ],
      "name": "ERC20InsufficientAllowance",
      "type": "error"
    },
    {
      "inputs": [
        {
          "internalType": "address",
          "name": "sender",
          "type": "address"
        },
        {
          "internalType": "uint256",
          "name": "balance",
          "type": "uint256"
        },
        {
          "internalType": "uint256",
          "name": "needed",
          "type": "uint256"
        }
      ],
      "name": "ERC20InsufficientBalance",
      "type": "error"
    },
    {
      "inputs": [
        {
          "internalType": "address",
          "name": "approver",
          "type": "address"
        }
      ],
      "name": "ERC20InvalidApprover",
      "type": "error"
    },
    {
      "inputs": [
        {
          "internalType": "address",
          "name": "receiver",
          "type": "address"
        }
      ],
      "name": "ERC20InvalidReceiver",
      "type": "error"
    },
    {
      "inputs": [
        {
          "internalType": "address",
          "name": "sender",
          "type": "address"
        }
      ],
      "name": "ERC20InvalidSender",
      "type": "error"
    },
    {
      "inputs": [
        {
          "internalType": "address",
          "name": "spender",
          "type": "address"
        }
      ],
      "name": "ERC20InvalidSpender",
      "type": "error"
    },
    {
      "inputs": [
        {
          "internalType": "uint256",
          "name": "deadline",
          "type": "uint256"
        }
      ],
      "name": "ERC2612ExpiredSignature",
      "type": "error"
    },
    {
      "inputs": [
        {
          "internalType": "address",
          "name": "signer",
          "type": "address"
        },
        {
          "internalType": "address",
          "name": "owner",
          "type": "address"
        }
      ],
      "name": "ERC2612InvalidSigner",
      "type": "error"
    },
    {
      "inputs": [
        {
          "internalType": "address",
          "name": "account",
          "type": "address"
        },
        {
          "internalType": "uint256",
          "name": "currentNonce",
          "type": "uint256"
        }
      ],
      "name": "InvalidAccountNonce",
      "type": "error"
    },
    {
      "inputs": [],
      "name": "InvalidShortString",
      "type": "error"
    },
    {
      "inputs": [
        {
          "internalType": "address",
          "name": "owner",
          "type": "address"
        }
      ],
      "name": "OwnableInvalidOwner",
      "type": "error"
    },
    {
      "inputs": [
        {
          "internalType": "address",
          "name": "account",
          "type": "address"
        }
      ],
      "name": "OwnableUnauthorizedAccount",
      "type": "error"
    },
    {
      "inputs": [
        {
          "internalType": "string",
          "name": "str",
          "type": "string"
        }
      ],
      "name": "StringTooLong",
      "type": "error"
    },
    {
      "anonymous": false,
      "inputs": [
        {
          "indexed": true,
          "internalType": "address",
          "name": "owner",
          "type": "address"
        },
        {
          "indexed": true,
          "internalType": "address",
          "name": "spender",
          "type": "address"
        },
        {
          "indexed": false,
          "internalType": "uint256",
          "name": "value",
          "type": "uint256"
        }
      ],
      "name": "Approval",
      "type": "event"
    },
    {
      "anonymous": false,
      "inputs": [],
      "name": "EIP712DomainChanged",
      "type": "event"
    },
    {
      "anonymous": false,
      "inputs": [
        {
          "indexed": true,
          "internalType": "address",
          "name": "previousOwner",
          "type": "address"
        },
        {
          "indexed": true,
          "internalType": "address",
          "name": "newOwner",
          "type": "address"
        }
      ],
      "name": "OwnershipTransferred",
      "type": "event"
    },
    {
      "anonymous": false,
      "inputs": [
        {
          "indexed": true,
          "internalType": "address",
          "name": "from",
          "type": "address"
        },
        {
          "indexed": true,
          "internalType": "address",
          "name": "to",
          "type": "address"
        },
        {
          "indexed": false,
          "internalType": "uint256",
          "name": "value",
          "type": "uint256"
        }
      ],
      "name": "Transfer",
      "type": "event"
    },
    {
      "inputs": [],
      "name": "DOMAIN_SEPARATOR",
      "outputs": [
        {
          "internalType": "bytes32",
          "name": "",
          "type": "bytes32"
        }
      ],
      "stateMutability": "view",
      "type": "function"
    },
    {
      "inputs": [
        {
          "internalType": "address",
          "name": "owner",
          "type": "address"
        },
        {
          "internalType": "address",
          "name": "spender",
          "type": "address"
        }
      ],
      "name": "allowance",
      "outputs": [
        {
          "internalType": "uint256",
          "name": "",
          "type": "uint256"
        }
      ],
      "stateMutability": "view",
      "type": "function"
    },
    {
      "inputs": [
        {
          "internalType": "address",
          "name": "spender",
          "type": "address"
        },
        {
          "internalType": "uint256",
          "name": "value",
          "type": "uint256"
        }
      ],
      "name": "approve",
      "outputs": [
        {
          "internalType": "bool",
          "name": "",
          "type": "bool"
        }
      ],
      "stateMutability": "nonpayable",
      "type": "function"
    },
    {
      "inputs": [
        {
          "internalType": "address",
          "name": "account",
          "type": "address"
        }
      ],
      "name": "balanceOf",
      "outputs": [
        {
          "internalType": "uint256",
          "name": "",
          "type": "uint256"
        }
      ],
      "stateMutability": "view",
      "type": "function"
    },
    {
      "inputs": [
        {
          "internalType": "uint256",
          "name": "value",
          "type": "uint256"
        }
      ],
      "name": "burn",
      "outputs": [],
      "stateMutability": "nonpayable",
      "type": "function"
    },
    {
      "inputs": [
        {
          "internalType": "address",
          "name": "account",
          "type": "address"
        },
        {
          "internalType": "uint256",
          "name": "value",
          "type": "uint256"
        }
      ],
      "name": "burnFrom",
      "outputs": [],
      "stateMutability": "nonpayable",
      "type": "function"
    },
    {
      "inputs": [],
      "name": "decimals",
      "outputs": [
        {
          "internalType": "uint8",
          "name": "",
          "type": "uint8"
        }
      ],
      "stateMutability": "view",
      "type": "function"
    },
    {
      "inputs": [],
      "name": "eip712Domain",
      "outputs": [
        {
          "internalType": "bytes1",
          "name": "fields",
          "type": "bytes1"
        },
        {
          "internalType": "string",
          "name": "name",
          "type": "string"
        },
        {
          "internalType": "string",
          "name": "version",
          "type": "string"
        },
        {
          "internalType": "uint256",
          "name": "chainId",
          "type": "uint256"
        },
        {
          "internalType": "address",
          "name": "verifyingContract",
          "type": "address"
        },
        {
          "internalType": "bytes32",
          "name": "salt",
          "type": "bytes32"
        },
        {
          "internalType": "uint256[]",
          "name": "extensions",
          "type": "uint256[]"
        }
      ],
      "stateMutability": "view",
      "type": "function"
    },
    {
      "inputs": [
        {
          "internalType": "address",
          "name": "to",
          "type": "address"
        },
        {
          "internalType": "uint256",
          "name": "amount",
          "type": "uint256"
        }
      ],
      "name": "mint",
      "outputs": [],
      "stateMutability": "nonpayable",
      "type": "function"
    },
    {
      "inputs": [],
      "name": "name",
      "outputs": [
        {
          "internalType": "string",
          "name": "",
          "type": "string"
        }
      ],
      "stateMutability": "view",
      "type": "function"
    },
    {
      "inputs": [
        {
          "internalType": "address",
          "name": "owner",
          "type": "address"
        }
      ],
      "name": "nonces",
      "outputs": [
        {
          "internalType": "uint256",
          "name": "",
          "type": "uint256"
        }
      ],
      "stateMutability": "view",
      "type": "function"
    },
    {
      "inputs": [],
      "name": "owner",
      "outputs": [
        {
          "internalType": "address",
          "name": "",
          "type": "address"
        }
      ],
      "stateMutability": "view",
      "type": "function"
    },
    {
      "inputs": [
        {
          "internalType": "address",
          "name": "owner",
          "type": "address"
        },
        {
          "internalType": "address",
          "name": "spender",
          "type": "address"
        },
        {
          "internalType": "uint256",
          "name": "value",
          "type": "uint256"
        },
        {
          "internalType": "uint256",
          "name": "deadline",
          "type": "uint256"
        },
        {
          "internalType": "uint8",
          "name": "v",
          "type": "uint8"
        },
        {
          "internalType": "bytes32",
          "name": "r",
          "type": "bytes32"
        },
        {
          "internalType": "bytes32",
          "name": "s",
          "type": "bytes32"
        }
      ],
      "name": "permit",
      "outputs": [],
      "stateMutability": "nonpayable",
      "type": "function"
    },
    {
      "inputs": [],
      "name": "renounceOwnership",
      "outputs": [],
      "stateMutability": "nonpayable",
      "type": "function"
    },
    {
      "inputs": [],
      "name": "symbol",
      "outputs": [
        {
          "internalType": "string",
          "name": "",
          "type": "string"
        }
      ],
      "stateMutability": "view",
      "type": "function"
    },
    {
      "inputs": [],
      "name": "totalSupply",
      "outputs": [
        {
          "internalType": "uint256",
          "name": "",
          "type": "uint256"
        }
      ],
      "stateMutability": "view",
      "type": "function"
    },
    {
      "inputs": [
        {
          "internalType": "address",
          "name": "to",
          "type": "address"
        },
        {
          "internalType": "uint256",
          "name": "value",
          "type": "uint256"
        }
      ],
      "name": "transfer",
      "outputs": [
        {
          "internalType": "bool",
          "name": "",
          "type": "bool"
        }
      ],
      "stateMutability": "nonpayable",
      "type": "function"
    },
    {
      "inputs": [
        {
          "internalType": "address",
          "name": "from",
          "type": "address"
        },
        {
          "internalType": "address",
          "name": "to",
          "type": "address"
        },
        {
          "internalType": "uint256",
          "name": "value",
          "type": "uint256"
        }
      ],
      "name": "transferFrom",
      "outputs": [
        {
          "internalType": "bool",
          "name": "",
          "type": "bool"
        }
      ],
      "stateMutability": "nonpayable",
      "type": "function"
    },
    {
      "inputs": [
        {
          "internalType": "address",
          "name": "newOwner",
          "type": "address"
        }
      ],
      "name": "transferOwnership",
      "outputs": [],
      "stateMutability": "nonpayable",
      "type": "function"
    }
  ],
  "bytecode": {
    "object": "0x6101606040523480156200001257600080fd5b5060405162001a9138038062001a91833981016040819052620000359162000424565b80604051806040016040528060088152602001672820abaa37b5b2b760c11b81525080604051806040016040528060018152602001603160f81b815250604051806040016040528060088152602001672820abaa37b5b2b760c11b81525060405180604001604052806002815260200161141560f21b8152508160039081620000bf9190620004fb565b506004620000ce8282620004fb565b50620000e091508390506005620001e5565b61012052620000f1816006620001e5565b61014052815160208084019190912060e052815190820120610100524660a0526200017f60e05161010051604080517f8b73c3c69bb8fe3d512ecc4cf759cc79239f7b179b0ffacaa9a75d522b39400f60208201529081019290925260608201524660808201523060a082015260009060c00160405160208183030381529060405280519060200120905090565b60805250503060c052506001600160a01b038116620001b957604051631e4fbdf760e01b8152600060048201526024015b60405180910390fd5b620001c4816200021e565b50620001de336c01431e0fae6d7217caa000000062000270565b506200065e565b60006020835110156200020557620001fd83620002ae565b905062000218565b81620002128482620004fb565b5060ff90505b92915050565b600880546001600160a01b038381166001600160a01b0319831681179093556040519116919082907f8be0079c531659141344cd1fd0a4f28419497f9722a3daafe3b4186f6b6457e090600090a35050565b6001600160a01b0382166200029c5760405163ec442f0560e01b815260006004820152602401620001b0565b620002aa60008383620002f1565b5050565b600080829050601f81511115620002dc578260405163305a27a960e01b8152600401620001b09190620005c7565b8051620002e98262000617565b179392505050565b6001600160a01b038316620003205780600260008282546200031491906200063c565b90915550620003949050565b6001600160a01b03831660009081526020819052604090205481811015620003755760405163391434e360e21b81526001600160a01b03851660048201526024810182905260448101839052606401620001b0565b6001600160a01b03841660009081526020819052604090209082900390555b6001600160a01b038216620003b257600280548290039055620003d1565b6001600160a01b03821660009081526020819052604090208054820190555b816001600160a01b0316836001600160a01b03167fddf252ad1be2c89b69c2b068fc378daa952ba7f163c4a11628f55a4df523b3ef836040516200041791815260200190565b60405180910390a3505050565b6000602082840312156200043757600080fd5b81516001600160a01b03811681146200044f57600080fd5b9392505050565b634e487b7160e01b600052604160045260246000fd5b600181811c908216806200048157607f821691505b602082108103620004a257634e487b7160e01b600052602260045260246000fd5b50919050565b601f821115620004f657600081815260208120601f850160051c81016020861015620004d15750805b601f850160051c820191505b81811015620004f257828155600101620004dd565b5050505b505050565b81516001600160401b0381111562000517576200051762000456565b6200052f816200052884546200046c565b84620004a8565b602080601f8311600181146200056757600084156200054e5750858301515b600019600386901b1c1916600185901b178555620004f2565b600085815260208120601f198616915b82811015620005985788860151825594840194600190910190840162000577565b5085821015620005b75787850151600019600388901b60f8161c191681555b5050505050600190811b01905550565b600060208083528351808285015260005b81811015620005f657858101830151858201604001528201620005d8565b506000604082860101526040601f19601f8301168501019250505092915050565b80516020808301519190811015620004a25760001960209190910360031b1b16919050565b808201808211156200021857634e487b7160e01b600052601160045260246000fd5b60805160a05160c05160e0516101005161012051610140516113d8620006b96000396000610a9401526000610a67015260006108c101526000610899015260006107f40152600061081e0152600061084801526113d86000f3fe608060405234801561001057600080fd5b50600436106101515760003560e01c8063715018a6116100cd57806395d89b4111610081578063d505accf11610066578063d505accf146102a3578063dd62ed3e146102b6578063f2fde38b146102ef57600080fd5b806395d89b4114610288578063a9059cbb1461029057600080fd5b80637ecebe00116100b25780637ecebe001461023f57806384b0196e146102525780638da5cb5b1461026d57600080fd5b8063715018a61461022457806379cc67901461022c57600080fd5b8063313ce5671161012457806340c10f191161010957806340c10f19146101d357806342966c68146101e857806370a08231146101fb57600080fd5b8063313ce567146101bc5780633644e515146101cb57600080fd5b806306fdde0314610156578063095ea7b31461017457806318160ddd1461019757806323b872dd146101a9575b600080fd5b61015e610302565b60405161016b91906110be565b60405180910390f35b6101876101823660046110f4565b610394565b604051901515815260200161016b565b6002545b60405190815260200161016b565b6101876101b736600461111e565b6103ae565b6040516012815260200161016b565b61019b6103d2565b6101e66101e13660046110f4565b6103e1565b005b6101e66101f636600461115a565b6103f7565b61019b610209366004611173565b6001600160a01b031660009081526020819052604090205490565b6101e6610404565b6101e661023a3660046110f4565b610418565b61019b61024d366004611173565b61042d565b61025a61044b565b60405161016b979695949392919061118e565b6008546040516001600160a01b03909116815260200161016b565b61015e6104ad565b61018761029e3660046110f4565b6104bc565b6101e66102b1366004611240565b6104ca565b61019b6102c43660046112b3565b6001600160a01b03918216600090815260016020908152604080832093909416825291909152205490565b6101e66102fd366004611173565b61063b565b606060038054610311906112e6565b80601f016020809104026020016040519081016040528092919081815260200182805461033d906112e6565b801561038a5780601f1061035f5761010080835404028352916020019161038a565b820191906000526020600020905b81548152906001019060200180831161036d57829003601f168201915b5050505050905090565b6000336103a281858561068f565b60019150505b92915050565b6000336103bc8582856106a1565b6103c7858585610756565b506001949350505050565b60006103dc6107e7565b905090565b6103e9610912565b6103f38282610958565b5050565b61040133826109a7565b50565b61040c610912565b61041660006109f6565b565b6104238233836106a1565b6103f382826109a7565b6001600160a01b0381166000908152600760205260408120546103a8565b60006060806000806000606061045f610a60565b610467610a8d565b604080516000808252602082019092527f0f000000000000000000000000000000000000000000000000000000000000009b939a50919850469750309650945092509050565b606060048054610311906112e6565b6000336103a2818585610756565b8342111561050c576040517f62791302000000000000000000000000000000000000000000000000000000008152600481018590526024015b60405180910390fd5b60007f6e71edae12b1b97f4d1f60370fef10105fa2faae0126114a169c64845d6126c98888886105598c6001600160a01b0316600090815260076020526040902080546001810190915590565b6040805160208101969096526001600160a01b0394851690860152929091166060840152608083015260a082015260c0810186905260e00160405160208183030381529060405280519060200120905060006105b482610aba565b905060006105c482878787610b02565b9050896001600160a01b0316816001600160a01b031614610624576040517f4b800e460000000000000000000000000000000000000000000000000000000081526001600160a01b0380831660048301528b166024820152604401610503565b61062f8a8a8a61068f565b50505050505050505050565b610643610912565b6001600160a01b038116610686576040517f1e4fbdf700000000000000000000000000000000000000000000000000000000815260006004820152602401610503565b610401816109f6565b61069c8383836001610b30565b505050565b6001600160a01b038381166000908152600160209081526040808320938616835292905220547fffffffffffffffffffffffffffffffffffffffffffffffffffffffffffffffff81146107505781811015610741576040517ffb8f41b20000000000000000000000000000000000000000000000000000000081526001600160a01b03841660048201526024810182905260448101839052606401610503565b61075084848484036000610b30565b50505050565b6001600160a01b038316610799576040517f96c6fd1e00000000000000000000000000000000000000000000000000000000815260006004820152602401610503565b6001600160a01b0382166107dc576040517fec442f0500000000000000000000000000000000000000000000000000000000815260006004820152602401610503565b61069c838383610c37565b6000306001600160a01b037f00000000000000000000000000000000000000000000000000000000000000001614801561084057507f000000000000000000000000000000000000000000000000000000000000000046145b1561086a57507f000000000000000000000000000000000000000000000000000000000000000090565b6103dc604080517f8b73c3c69bb8fe3d512ecc4cf759cc79239f7b179b0ffacaa9a75d522b39400f60208201527f0000000000000000000000000000000000000000000000000000000000000000918101919091527f000000000000000000000000000000000000000000000000000000000000000060608201524660808201523060a082015260009060c00160405160208183030381529060405280519060200120905090565b6008546001600160a01b03163314610416576040517f118cdaa7000000000000000000000000000000000000000000000000000000008152336004820152602401610503565b6001600160a01b03821661099b576040517fec442f0500000000000000000000000000000000000000000000000000000000815260006004820152602401610503565b6103f360008383610c37565b6001600160a01b0382166109ea576040517f96c6fd1e00000000000000000000000000000000000000000000000000000000815260006004820152602401610503565b6103f382600083610c37565b600880546001600160a01b038381167fffffffffffffffffffffffff0000000000000000000000000000000000000000831681179093556040519116919082907f8be0079c531659141344cd1fd0a4f28419497f9722a3daafe3b4186f6b6457e090600090a35050565b60606103dc7f00000000000000000000000000000000000000000000000000000000000000006005610d7a565b60606103dc7f00000000000000000000000000000000000000000000000000000000000000006006610d7a565b60006103a8610ac76107e7565b836040517f19010000000000000000000000000000000000000000000000000000000000008152600281019290925260228201526042902090565b600080600080610b1488888888610e25565b925092509250610b248282610ef4565b50909695505050505050565b6001600160a01b038416610b73576040517fe602df0500000000000000000000000000000000000000000000000000000000815260006004820152602401610503565b6001600160a01b038316610bb6576040517f94280d6200000000000000000000000000000000000000000000000000000000815260006004820152602401610503565b6001600160a01b038085166000908152600160209081526040808320938716835292905220829055801561075057826001600160a01b0316846001600160a01b03167f8c5be1e5ebec7d5bd14f71427d1e84f3dd0314c0f7b2291e5b200ac8c7c3b92584604051610c2991815260200190565b60405180910390a350505050565b6001600160a01b038316610c62578060026000828254610c579190611339565b90915550610ced9050565b6001600160a01b03831660009081526020819052604090205481811015610cce576040517fe450d38c0000000000000000000000000000000000000000000000000000000081526001600160a01b03851660048201526024810182905260448101839052606401610503565b6001600160a01b03841660009081526020819052604090209082900390555b6001600160a01b038216610d0957600280548290039055610d28565b6001600160a01b03821660009081526020819052604090208054820190555b816001600160a01b0316836001600160a01b03167fddf252ad1be2c89b69c2b068fc378daa952ba7f163c4a11628f55a4df523b3ef83604051610d6d91815260200190565b60405180910390a3505050565b606060ff8314610d9457610d8d83610ff8565b90506103a8565b818054610da0906112e6565b80601f0160208091040260200160405190810160405280929190818152602001828054610dcc906112e6565b8015610e195780601f10610dee57610100808354040283529160200191610e19565b820191906000526020600020905b815481529060010190602001808311610dfc57829003601f168201915b505050505090506103a8565b600080807f7fffffffffffffffffffffffffffffff5d576e7357a4501ddfe92f46681b20a0841115610e605750600091506003905082610eea565b604080516000808252602082018084528a905260ff891692820192909252606081018790526080810186905260019060a0016020604051602081039080840390855afa158015610eb4573d6000803e3d6000fd5b5050604051601f1901519150506001600160a01b038116610ee057506000925060019150829050610eea565b9250600091508190505b9450945094915050565b6000826003811115610f0857610f08611373565b03610f11575050565b6001826003811115610f2557610f25611373565b03610f5c576040517ff645eedf00000000000000000000000000000000000000000000000000000000815260040160405180910390fd5b6002826003811115610f7057610f70611373565b03610faa576040517ffce698f700000000000000000000000000000000000000000000000000000000815260048101829052602401610503565b6003826003811115610fbe57610fbe611373565b036103f3576040517fd78bce0c00000000000000000000000000000000000000000000000000000000815260048101829052602401610503565b6060600061100583611037565b604080516020808252818301909252919250600091906020820181803683375050509182525060208101929092525090565b600060ff8216601f8111156103a8576040517fb3512b0c00000000000000000000000000000000000000000000000000000000815260040160405180910390fd5b6000815180845260005b8181101561109e57602081850181015186830182015201611082565b506000602082860101526020601f19601f83011685010191505092915050565b6020815260006110d16020830184611078565b9392505050565b80356001600160a01b03811681146110ef57600080fd5b919050565b6000806040838503121561110757600080fd5b611110836110d8565b946020939093013593505050565b60008060006060848603121561113357600080fd5b61113c846110d8565b925061114a602085016110d8565b9150604084013590509250925092565b60006020828403121561116c57600080fd5b5035919050565b60006020828403121561118557600080fd5b6110d1826110d8565b7fff00000000000000000000000000000000000000000000000000000000000000881681526000602060e0818401526111ca60e084018a611078565b83810360408501526111dc818a611078565b606085018990526001600160a01b038816608086015260a0850187905284810360c0860152855180825283870192509083019060005b8181101561122e57835183529284019291840191600101611212565b50909c9b505050505050505050505050565b600080600080600080600060e0888a03121561125b57600080fd5b611264886110d8565b9650611272602089016110d8565b95506040880135945060608801359350608088013560ff8116811461129657600080fd5b9699959850939692959460a0840135945060c09093013592915050565b600080604083850312156112c657600080fd5b6112cf836110d8565b91506112dd602084016110d8565b90509250929050565b600181811c908216806112fa57607f821691505b602082108103611333577f4e487b7100000000000000000000000000000000000000000000000000000000600052602260045260246000fd5b50919050565b808201808211156103a8577f4e487b7100000000000000000000000000000000000000000000000000000000600052601160045260246000fd5b7f4e487b7100000000000000000000000000000000000000000000000000000000600052602160045260246000fdfea26469706673582212207083e53dc8a0682ec93bc56df1a672793d44a09f6dc8b179412428ebb12f982464736f6c63430008150033",
    "linkReferences": {}
  },
  "methodIdentifiers": {
    "DOMAIN_SEPARATOR()": "3644e515",
    "allowance(address,address)": "dd62ed3e",
    "approve(address,uint256)": "095ea7b3",
    "balanceOf(address)": "70a08231",
    "burn(uint256)": "42966c68",
    "burnFrom(address,uint256)": "79cc6790",
    "decimals()": "313ce567",
    "eip712Domain()": "84b0196e",
    "mint(address,uint256)": "40c10f19",
    "name()": "06fdde03",
    "nonces(address)": "7ecebe00",
    "owner()": "8da5cb5b",
    "permit(address,address,uint256,uint256,uint8,bytes32,bytes32)": "d505accf",
    "renounceOwnership()": "715018a6",
    "symbol()": "95d89b41",
    "totalSupply()": "18160ddd",
    "transfer(address,uint256)": "a9059cbb",
    "transferFrom(address,address,uint256)": "23b872dd",
    "transferOwnership(address)": "f2fde38b"
  },
  "id": 210
}