{
  "abi": [
    {
      "inputs": [
        {
          "internalType": "address",
          "name": "_tokenAddress",
          "type": "address"
        },
        {
          "internalType": "uint256",
          "name": "_distributionAmount",
          "type": "uint256"
        }
      ],
      "stateMutability": "nonpayable",
      "type": "constructor"
    },
    {
      "anonymous": false,
      "inputs": [
        {
          "indexed": false,
          "internalType": "address",
          "name": "recipient",
          "type": "address"
        },
        {
          "indexed": false,
          "internalType": "uint256",
          "name": "amount",
          "type": "uint256"
        }
      ],
      "name": "Distributed",
      "type": "event"
    },
    {
      "inputs": [],
      "name": "distributionAmount",
      "outputs": [
        {
          "internalType": "uint256",
          "name": "",
          "type": "uint256"
        }
      ],
      "stateMutability": "view",
      "type": "function"
    },
    {
      "inputs": [
        {
          "internalType": "bytes32",
          "name": "_messageHash",
          "type": "bytes32"
        }
      ],
      "name": "getEthSignedMessageHash",
      "outputs": [
        {
          "internalType": "bytes32",
          "name": "",
          "type": "bytes32"
        }
      ],
      "stateMutability": "pure",
      "type": "function"
    },
    {
      "inputs": [
        {
          "internalType": "address",
          "name": "_to",
          "type": "address"
        },
        {
          "internalType": "uint256",
          "name": "_nonce",
          "type": "uint256"
        }
      ],
      "name": "getMessageHash",
      "outputs": [
        {
          "internalType": "bytes32",
          "name": "",
          "type": "bytes32"
        }
      ],
      "stateMutability": "pure",
      "type": "function"
    },
    {
      "inputs": [],
      "name": "owner",
      "outputs": [
        {
          "internalType": "address",
          "name": "",
          "type": "address"
        }
      ],
      "stateMutability": "view",
      "type": "function"
    },
    {
      "inputs": [
        {
          "internalType": "bytes32",
          "name": "_ethSignedMessageHash",
          "type": "bytes32"
        },
        {
          "internalType": "bytes",
          "name": "_signature",
          "type": "bytes"
        }
      ],
      "name": "recoverSigner",
      "outputs": [
        {
          "internalType": "address",
          "name": "",
          "type": "address"
        }
      ],
      "stateMutability": "pure",
      "type": "function"
    },
    {
      "inputs": [
        {
          "internalType": "bytes",
          "name": "signature",
          "type": "bytes"
        },
        {
          "internalType": "uint256",
          "name": "nonce",
          "type": "uint256"
        }
      ],
      "name": "requestTokens",
      "outputs": [],
      "stateMutability": "nonpayable",
      "type": "function"
    },
    {
      "inputs": [
        {
          "internalType": "address",
          "name": "",
          "type": "address"
        }
      ],
      "name": "requestedAmount",
      "outputs": [
        {
          "internalType": "uint256",
          "name": "",
          "type": "uint256"
        }
      ],
      "stateMutability": "view",
      "type": "function"
    },
    {
      "inputs": [
        {
          "internalType": "bool",
          "name": "_verification",
          "type": "bool"
        }
      ],
      "name": "setVerification",
      "outputs": [],
      "stateMutability": "nonpayable",
      "type": "function"
    },
    {
      "inputs": [
        {
          "internalType": "bytes",
          "name": "sig",
          "type": "bytes"
        }
      ],
      "name": "splitSignature",
      "outputs": [
        {
          "internalType": "bytes32",
          "name": "r",
          "type": "bytes32"
        },
        {
          "internalType": "bytes32",
          "name": "s",
          "type": "bytes32"
        },
        {
          "internalType": "uint8",
          "name": "v",
          "type": "uint8"
        }
      ],
      "stateMutability": "pure",
      "type": "function"
    },
    {
      "inputs": [],
      "name": "token",
      "outputs": [
        {
          "internalType": "contract IERC20",
          "name": "",
          "type": "address"
        }
      ],
      "stateMutability": "view",
      "type": "function"
    },
    {
      "inputs": [
        {
          "internalType": "uint256",
          "name": "_newAmount",
          "type": "uint256"
        }
      ],
      "name": "updateDistributionAmount",
      "outputs": [],
      "stateMutability": "nonpayable",
      "type": "function"
    },
    {
      "inputs": [
        {
          "internalType": "address",
          "name": "newVerifier",
          "type": "address"
        }
      ],
      "name": "updateVerifier",
      "outputs": [],
      "stateMutability": "nonpayable",
      "type": "function"
    },
    {
      "inputs": [],
      "name": "verification",
      "outputs": [
        {
          "internalType": "bool",
          "name": "",
          "type": "bool"
        }
      ],
      "stateMutability": "view",
      "type": "function"
    },
    {
      "inputs": [],
      "name": "verifier",
      "outputs": [
        {
          "internalType": "address",
          "name": "",
          "type": "address"
        }
      ],
      "stateMutability": "view",
      "type": "function"
    },
    {
      "inputs": [
        {
          "internalType": "uint256",
          "name": "_nonce",
          "type": "uint256"
        },
        {
          "internalType": "bytes",
          "name": "signature",
          "type": "bytes"
        }
      ],
      "name": "verifySignature",
      "outputs": [
        {
          "internalType": "bool",
          "name": "",
          "type": "bool"
        }
      ],
      "stateMutability": "nonpayable",
      "type": "function"
    },
    {
      "inputs": [
        {
          "internalType": "uint256",
          "name": "_amount",
          "type": "uint256"
        }
      ],
      "name": "withdrawTokens",
      "outputs": [],
      "stateMutability": "nonpayable",
      "type": "function"
    }
  ],
  "bytecode": {
    "object": "0x608060405234801561001057600080fd5b50604051610f10380380610f1083398101604081905261002f91610070565b60008054336001600160a01b031991821617909155600280549091166001600160a01b0393909316929092179091556003556004805460ff191690556100aa565b6000806040838503121561008357600080fd5b82516001600160a01b038116811461009a57600080fd5b6020939093015192949293505050565b610e57806100b96000396000f3fe608060405234801561001057600080fd5b50600436106101005760003560e01c806397aba7f911610097578063b0e0c68111610066578063b0e0c6811461024b578063e9d1edde14610254578063fa54080114610267578063fc0c546a146102c857600080fd5b806397aba7f9146101e157806397fc007c146101f4578063a7bb580314610207578063aaa0ba2a1461023857600080fd5b8063512c91df116100d3578063512c91df1461017a57806372c53d9b1461019b5780638da5cb5b146101ae5780639645eb14146101c157600080fd5b806319862364146101055780632b7ac3f31461011a578063315a095d1461014a5780634ffe2a8b1461015d575b600080fd5b610118610113366004610b7d565b6102db565b005b60015461012d906001600160a01b031681565b6040516001600160a01b0390911681526020015b60405180910390f35b610118610158366004610b7d565b610365565b60045461016a9060ff1681565b6040519015158152602001610141565b61018d610188366004610bb2565b610554565b604051908152602001610141565b61016a6101a9366004610c98565b6105af565b60005461012d906001600160a01b031681565b61018d6101cf366004610cdf565b60056020526000908152604090205481565b61012d6101ef366004610c98565b61068e565b610118610202366004610cdf565b61070d565b61021a610215366004610d01565b6107c7565b60408051938452602084019290925260ff1690820152606001610141565b610118610246366004610d3e565b61083b565b61018d60035481565b610118610262366004610d94565b610aea565b61018d610275366004610b7d565b6040517f19457468657265756d205369676e6564204d6573736167653a0a3332000000006020820152603c8101829052600090605c01604051602081830303815290604052805190602001209050919050565b60025461012d906001600160a01b031681565b6000546001600160a01b031633146103605760405162461bcd60e51b815260206004820152602f60248201527f4f6e6c792074686520636f6e7472616374206f776e65722063616e207065726660448201527f6f726d207468697320616374696f6e000000000000000000000000000000000060648201526084015b60405180910390fd5b600355565b6000546001600160a01b031633146103e55760405162461bcd60e51b815260206004820152602f60248201527f4f6e6c792074686520636f6e7472616374206f776e65722063616e207065726660448201527f6f726d207468697320616374696f6e00000000000000000000000000000000006064820152608401610357565b6002546040517f70a082310000000000000000000000000000000000000000000000000000000081523060048201526000916001600160a01b0316906370a0823190602401602060405180830381865afa158015610447573d6000803e3d6000fd5b505050506040513d601f19601f8201168201806040525081019061046b9190610db1565b9050818110156104bd5760405162461bcd60e51b815260206004820181905260248201527f496e73756666696369656e742062616c616e636520746f2077697468647261776044820152606401610357565b6002546000546040517fa9059cbb0000000000000000000000000000000000000000000000000000000081526001600160a01b0391821660048201526024810185905291169063a9059cbb906044016020604051808303816000875af115801561052b573d6000803e3d6000fd5b505050506040513d601f19601f8201168201806040525081019061054f9190610dca565b505050565b6040517fffffffffffffffffffffffffffffffffffffffff000000000000000000000000606084901b166020820152603481018290526000906054016040516020818303038152906040528051906020012090505b92915050565b60045460009060ff16156106865760008381526006602052604090205460ff16156105d957600080fd5b60006105e53385610554565b90506000610640826040517f19457468657265756d205369676e6564204d6573736167653a0a3332000000006020820152603c8101829052600090605c01604051602081830303815290604052805190602001209050919050565b6000868152600660205260409020805460ff19166001908117909155549091506001600160a01b0316610673828661068e565b6001600160a01b031614925050506105a9565b5060016105a9565b60008060008061069d856107c7565b6040805160008152602081018083528b905260ff8316918101919091526060810184905260808101839052929550909350915060019060a0016020604051602081039080840390855afa1580156106f8573d6000803e3d6000fd5b5050604051601f190151979650505050505050565b6000546001600160a01b0316331461078d5760405162461bcd60e51b815260206004820152602f60248201527f4f6e6c792074686520636f6e7472616374206f776e65722063616e207065726660448201527f6f726d207468697320616374696f6e00000000000000000000000000000000006064820152608401610357565b600180547fffffffffffffffffffffffff0000000000000000000000000000000000000000166001600160a01b0392909216919091179055565b6000806000835160411461081d5760405162461bcd60e51b815260206004820152601860248201527f696e76616c6964207369676e6174757265206c656e67746800000000000000006044820152606401610357565b50505060208101516040820151606090920151909260009190911a90565b33600090815260056020526040902054156108be5760405162461bcd60e51b815260206004820152602160248201527f596f75206861766520616c72656164792072657175657374656420746f6b656e60448201527f73000000000000000000000000000000000000000000000000000000000000006064820152608401610357565b6108c881836105af565b6109145760405162461bcd60e51b815260206004820152601160248201527f496e76616c6964207369676e61747572650000000000000000000000000000006044820152606401610357565b6002546040517f70a082310000000000000000000000000000000000000000000000000000000081523060048201526000916001600160a01b0316906370a0823190602401602060405180830381865afa158015610976573d6000803e3d6000fd5b505050506040513d601f19601f8201168201806040525081019061099a9190610db1565b90506003548110156109ee5760405162461bcd60e51b815260206004820152601b60248201527f496e73756666696369656e74206661756365742062616c616e636500000000006044820152606401610357565b6002546003546040517fa9059cbb00000000000000000000000000000000000000000000000000000000815233600482015260248101919091526001600160a01b039091169063a9059cbb906044016020604051808303816000875af1158015610a5c573d6000803e3d6000fd5b505050506040513d601f19601f82011682018060405250810190610a809190610dca565b506003543360009081526005602052604081208054909190610aa3908490610de7565b90915550506003546040805133815260208101929092527fb649c98f58055c520df0dcb5709eff2e931217ff2fb1e21376130d31bbb1c0af910160405180910390a1505050565b6000546001600160a01b03163314610b6a5760405162461bcd60e51b815260206004820152602f60248201527f4f6e6c792074686520636f6e7472616374206f776e65722063616e207065726660448201527f6f726d207468697320616374696f6e00000000000000000000000000000000006064820152608401610357565b6004805460ff1916911515919091179055565b600060208284031215610b8f57600080fd5b5035919050565b80356001600160a01b0381168114610bad57600080fd5b919050565b60008060408385031215610bc557600080fd5b610bce83610b96565b946020939093013593505050565b7f4e487b7100000000000000000000000000000000000000000000000000000000600052604160045260246000fd5b600082601f830112610c1c57600080fd5b813567ffffffffffffffff80821115610c3757610c37610bdc565b604051601f8301601f19908116603f01168101908282118183101715610c5f57610c5f610bdc565b81604052838152866020858801011115610c7857600080fd5b836020870160208301376000602085830101528094505050505092915050565b60008060408385031215610cab57600080fd5b82359150602083013567ffffffffffffffff811115610cc957600080fd5b610cd585828601610c0b565b9150509250929050565b600060208284031215610cf157600080fd5b610cfa82610b96565b9392505050565b600060208284031215610d1357600080fd5b813567ffffffffffffffff811115610d2a57600080fd5b610d3684828501610c0b565b949350505050565b60008060408385031215610d5157600080fd5b823567ffffffffffffffff811115610d6857600080fd5b610d7485828601610c0b565b95602094909401359450505050565b8015158114610d9157600080fd5b50565b600060208284031215610da657600080fd5b8135610cfa81610d83565b600060208284031215610dc357600080fd5b5051919050565b600060208284031215610ddc57600080fd5b8151610cfa81610d83565b808201808211156105a9577f4e487b7100000000000000000000000000000000000000000000000000000000600052601160045260246000fdfea2646970667358221220cb6ec6c92393953101e6391ce34750414763c4348549c8f2738e8a9dacbc09f164736f6c63430008150033",
    "linkReferences": {}
  },
  "methodIdentifiers": {
    "distributionAmount()": "b0e0c681",
    "getEthSignedMessageHash(bytes32)": "fa540801",
    "getMessageHash(address,uint256)": "512c91df",
    "owner()": "8da5cb5b",
    "recoverSigner(bytes32,bytes)": "97aba7f9",
    "requestTokens(bytes,uint256)": "aaa0ba2a",
    "requestedAmount(address)": "9645eb14",
    "setVerification(bool)": "e9d1edde",
    "splitSignature(bytes)": "a7bb5803",
    "token()": "fc0c546a",
    "updateDistributionAmount(uint256)": "19862364",
    "updateVerifier(address)": "97fc007c",
    "verification()": "4ffe2a8b",
    "verifier()": "2b7ac3f3",
    "verifySignature(uint256,bytes)": "72c53d9b",
    "withdrawTokens(uint256)": "315a095d"
  },
  "id": 114
}